{
  "contractName": "KYCContract",
  "abi": [
    {
      "inputs": [],
      "stateMutability": "nonpayable",
      "type": "constructor"
    },
    {
      "inputs": [
        {
          "internalType": "uint256",
          "name": "",
          "type": "uint256"
        }
      ],
      "name": "allBanks",
      "outputs": [
        {
          "internalType": "string",
          "name": "name",
          "type": "string"
        },
        {
          "internalType": "address",
          "name": "ethAddress",
          "type": "address"
        },
        {
          "internalType": "uint256",
          "name": "KYC_count",
          "type": "uint256"
        },
        {
          "internalType": "string",
          "name": "regNumber",
          "type": "string"
        },
        {
          "internalType": "bool",
          "name": "isAllowedKyc",
          "type": "bool"
        },
        {
          "internalType": "uint256",
          "name": "rating",
          "type": "uint256"
        }
      ],
      "stateMutability": "view",
      "type": "function",
      "constant": true
    },
    {
      "inputs": [
        {
          "internalType": "uint256",
          "name": "",
          "type": "uint256"
        }
      ],
      "name": "allCustomers",
      "outputs": [
        {
          "internalType": "string",
          "name": "uname",
          "type": "string"
        },
        {
          "internalType": "string",
          "name": "dataHash",
          "type": "string"
        },
        {
          "internalType": "uint256",
          "name": "upvotes",
          "type": "uint256"
        },
        {
          "internalType": "address",
          "name": "bank",
          "type": "address"
        },
        {
          "internalType": "string",
          "name": "password",
          "type": "string"
        },
        {
          "internalType": "uint256",
          "name": "rating",
          "type": "uint256"
        }
      ],
      "stateMutability": "view",
      "type": "function",
      "constant": true
    },
    {
      "inputs": [
        {
          "internalType": "uint256",
          "name": "",
          "type": "uint256"
        }
      ],
      "name": "allRequests",
      "outputs": [
        {
          "internalType": "string",
          "name": "uname",
          "type": "string"
        },
        {
          "internalType": "address",
          "name": "bankAddress",
          "type": "address"
        }
      ],
      "stateMutability": "view",
      "type": "function",
      "constant": true
    },
    {
      "inputs": [
        {
          "internalType": "uint256",
          "name": "",
          "type": "uint256"
        }
      ],
      "name": "validKYCs",
      "outputs": [
        {
          "internalType": "string",
          "name": "uname",
          "type": "string"
        },
        {
          "internalType": "address",
          "name": "bankAddress",
          "type": "address"
        }
      ],
      "stateMutability": "view",
      "type": "function",
      "constant": true
    },
    {
      "inputs": [
        {
          "internalType": "string",
          "name": "_bankName",
          "type": "string"
        },
        {
          "internalType": "string",
          "name": "_regNumber",
          "type": "string"
        },
        {
          "internalType": "address",
          "name": "_bankAddr",
          "type": "address"
        },
        {
          "internalType": "bool",
          "name": "_isAllowedKyc",
          "type": "bool"
        }
      ],
      "name": "addBank",
      "outputs": [
        {
          "internalType": "uint256",
          "name": "",
          "type": "uint256"
        }
      ],
      "stateMutability": "nonpayable",
      "type": "function"
    },
    {
      "inputs": [
        {
          "internalType": "address",
          "name": "_bankAddr",
          "type": "address"
        }
      ],
      "name": "removeBank",
      "outputs": [
        {
          "internalType": "uint256",
          "name": "",
          "type": "uint256"
        }
      ],
      "stateMutability": "nonpayable",
      "type": "function"
    },
    {
      "inputs": [
        {
          "internalType": "string",
          "name": "Uname",
          "type": "string"
        },
        {
          "internalType": "address",
          "name": "bankAddress",
          "type": "address"
        }
      ],
      "name": "addRequest",
      "outputs": [],
      "stateMutability": "payable",
      "type": "function",
      "payable": true
    },
    {
      "inputs": [
        {
          "internalType": "string",
          "name": "Uname",
          "type": "string"
        },
        {
          "internalType": "string",
          "name": "DataHash",
          "type": "string"
        }
      ],
      "name": "addCustomer",
      "outputs": [
        {
          "internalType": "int256",
          "name": "",
          "type": "int256"
        }
      ],
      "stateMutability": "payable",
      "type": "function",
      "payable": true
    },
    {
      "inputs": [
        {
          "internalType": "string",
          "name": "Uname",
          "type": "string"
        }
      ],
      "name": "removeRequest",
      "outputs": [
        {
          "internalType": "int256",
          "name": "",
          "type": "int256"
        }
      ],
      "stateMutability": "payable",
      "type": "function",
      "payable": true
    },
    {
      "inputs": [
        {
          "internalType": "string",
          "name": "Uname",
          "type": "string"
        }
      ],
      "name": "removeCustomer",
      "outputs": [
        {
          "internalType": "int256",
          "name": "",
          "type": "int256"
        }
      ],
      "stateMutability": "payable",
      "type": "function",
      "payable": true
    },
    {
      "inputs": [
        {
          "internalType": "string",
          "name": "Uname",
          "type": "string"
        },
        {
          "internalType": "string",
          "name": "DataHash",
          "type": "string"
        }
      ],
      "name": "modifyCustomer",
      "outputs": [
        {
          "internalType": "uint256",
          "name": "",
          "type": "uint256"
        }
      ],
      "stateMutability": "payable",
      "type": "function",
      "payable": true
    },
    {
      "inputs": [
        {
          "internalType": "string",
          "name": "Uname",
          "type": "string"
        }
      ],
      "name": "viewCustomer",
      "outputs": [
        {
          "internalType": "string",
          "name": "",
          "type": "string"
        }
      ],
      "stateMutability": "payable",
      "type": "function",
      "payable": true
    },
    {
      "inputs": [
        {
          "internalType": "string",
          "name": "Uname",
          "type": "string"
        },
        {
          "internalType": "address",
          "name": "bankAddress",
          "type": "address"
        }
      ],
      "name": "addKYC",
      "outputs": [],
      "stateMutability": "payable",
      "type": "function",
      "payable": true
    },
    {
      "inputs": [
        {
          "internalType": "string",
          "name": "Uname",
          "type": "string"
        }
      ],
      "name": "removeKYC",
      "outputs": [
        {
          "internalType": "int256",
          "name": "",
          "type": "int256"
        }
      ],
      "stateMutability": "payable",
      "type": "function",
      "payable": true
    },
    {
      "inputs": [
        {
          "internalType": "string",
          "name": "Uname",
          "type": "string"
        },
        {
          "internalType": "bool",
          "name": "ifIncrease",
          "type": "bool"
        }
      ],
      "name": "upvote",
      "outputs": [
        {
          "internalType": "uint256",
          "name": "",
          "type": "uint256"
        }
      ],
      "stateMutability": "payable",
      "type": "function",
      "payable": true
    },
    {
      "inputs": [
        {
          "internalType": "string",
          "name": "Uname",
          "type": "string"
        }
      ],
      "name": "acessHistory",
      "outputs": [
        {
          "internalType": "address",
          "name": "",
          "type": "address"
        }
      ],
      "stateMutability": "view",
      "type": "function",
      "constant": true
    },
    {
      "inputs": [
        {
          "internalType": "string",
          "name": "_uname",
          "type": "string"
        }
      ],
      "name": "addRatingToCustomer",
      "outputs": [
        {
          "internalType": "uint256",
          "name": "",
          "type": "uint256"
        }
      ],
      "stateMutability": "nonpayable",
      "type": "function"
    },
    {
      "inputs": [
        {
          "internalType": "string",
          "name": "_uname",
          "type": "string"
        }
      ],
      "name": "getCustomersRating",
      "outputs": [
        {
          "internalType": "uint256",
          "name": "",
          "type": "uint256"
        }
      ],
      "stateMutability": "view",
      "type": "function",
      "constant": true
    },
    {
      "inputs": [
        {
          "internalType": "address",
          "name": "_bankAddr",
          "type": "address"
        }
      ],
      "name": "addRatingToBank",
      "outputs": [
        {
          "internalType": "uint256",
          "name": "",
          "type": "uint256"
        }
      ],
      "stateMutability": "nonpayable",
      "type": "function"
    },
    {
      "inputs": [
        {
          "internalType": "address",
          "name": "_bankAddr",
          "type": "address"
        }
      ],
      "name": "getBanksRating",
      "outputs": [
        {
          "internalType": "uint256",
          "name": "",
          "type": "uint256"
        }
      ],
      "stateMutability": "view",
      "type": "function",
      "constant": true
    },
    {
      "inputs": [
        {
          "internalType": "string",
          "name": "_uname",
          "type": "string"
        },
        {
          "internalType": "string",
          "name": "_password",
          "type": "string"
        }
      ],
      "name": "setCustomerPassword",
      "outputs": [
        {
          "internalType": "bool",
          "name": "",
          "type": "bool"
        }
      ],
      "stateMutability": "nonpayable",
      "type": "function"
    },
    {
      "inputs": [
        {
          "internalType": "address",
          "name": "_bankAddr",
          "type": "address"
        }
      ],
      "name": "getBankDetails",
      "outputs": [
        {
          "internalType": "string",
          "name": "",
          "type": "string"
        }
      ],
      "stateMutability": "view",
      "type": "function",
      "constant": true
    },
    {
      "inputs": [
        {
          "internalType": "address",
          "name": "_bankAddr",
          "type": "address"
        }
      ],
      "name": "getBankRequest",
      "outputs": [
        {
          "internalType": "string",
          "name": "",
          "type": "string"
        }
      ],
      "stateMutability": "view",
      "type": "function",
      "constant": true
    }
  ],
  "bytecode": "0x608060405234801561001057600080fd5b50336000806101000a81548173ffffffffffffffffffffffffffffffffffffffff021916908373ffffffffffffffffffffffffffffffffffffffff160217905550614464806100606000396000f3fe6080604052600436106101405760003560e01c80638873704c116100b6578063dc6c28031161006f578063dc6c280314611023578063dd6f3c70146110fe578063def121151461126a578063eb6fbd20146113e1578063f72860ca146115ae578063fc55ea9d1461171457610140565b80638873704c14610bf157806388c2a11814610ccc5780639231b9f214610d315780639649650c14610e0d5780639bf4ec2f14610e72578063a24ba55214610f5957610140565b80632f679fb0116101085780632f679fb0146105f65780633190abc01461065b5780634f9296aa146107c15780636cba00e6146108a85780637d16f9db14610977578063851b36e914610b1657610140565b8063107925bb146101455780631313d9f51461027957806315101e0214610348578063230105161461041257806325e9170b146104ee575b600080fd5b6101fe6004803603602081101561015b57600080fd5b810190808035906020019064010000000081111561017857600080fd5b82018360208201111561018a57600080fd5b803590602001918460018302840111640100000000831117156101ac57600080fd5b91908080601f016020809104026020016040519081016040528093929190818152602001838380828437600081840152601f19601f8201169050808301925050505050505091929192905050506117e3565b6040518080602001828103825283818151815260200191508051906020019080838360005b8381101561023e578082015181840152602081019050610223565b50505050905090810190601f16801561026b5780820380516001836020036101000a031916815260200191505b509250505060405180910390f35b6103326004803603602081101561028f57600080fd5b81019080803590602001906401000000008111156102ac57600080fd5b8201836020820111156102be57600080fd5b803590602001918460018302840111640100000000831117156102e057600080fd5b91908080601f016020809104026020016040519081016040528093929190818152602001838380828437600081840152601f19601f82011690508083019250505050505050919291929050505061192d565b6040518082815260200191505060405180910390f35b34801561035457600080fd5b506103976004803603602081101561036b57600080fd5b81019080803573ffffffffffffffffffffffffffffffffffffffff169060200190929190505050611ad6565b6040518080602001828103825283818151815260200191508051906020019080838360005b838110156103d75780820151818401526020810190506103bc565b50505050905090810190601f1680156104045780820380516001836020036101000a031916815260200191505b509250505060405180910390f35b34801561041e57600080fd5b506104d86004803603602081101561043557600080fd5b810190808035906020019064010000000081111561045257600080fd5b82018360208201111561046457600080fd5b8035906020019184600183028401116401000000008311171561048657600080fd5b91908080601f016020809104026020016040519081016040528093929190818152602001838380828437600081840152601f19601f820116905080830192505050505050509192919290505050611c68565b6040518082815260200191505060405180910390f35b3480156104fa57600080fd5b506105b46004803603602081101561051157600080fd5b810190808035906020019064010000000081111561052e57600080fd5b82018360208201111561054057600080fd5b8035906020019184600183028401116401000000008311171561056257600080fd5b91908080601f016020809104026020016040519081016040528093929190818152602001838380828437600081840152601f19601f820116905080830192505050505050509192919290505050611de3565b604051808273ffffffffffffffffffffffffffffffffffffffff1673ffffffffffffffffffffffffffffffffffffffff16815260200191505060405180910390f35b34801561060257600080fd5b506106456004803603602081101561061957600080fd5b81019080803573ffffffffffffffffffffffffffffffffffffffff169060200190929190505050611e82565b6040518082815260200191505060405180910390f35b6107ab6004803603604081101561067157600080fd5b810190808035906020019064010000000081111561068e57600080fd5b8201836020820111156106a057600080fd5b803590602001918460018302840111640100000000831117156106c257600080fd5b91908080601f016020809104026020016040519081016040528093929190818152602001838380828437600081840152601f19601f8201169050808301925050505050505091929192908035906020019064010000000081111561072557600080fd5b82018360208201111561073757600080fd5b8035906020019184600183028401116401000000008311171561075957600080fd5b91908080601f016020809104026020016040519081016040528093929190818152602001838380828437600081840152601f19601f820116905080830192505050505050509192919290505050612043565b6040518082815260200191505060405180910390f35b3480156107cd57600080fd5b506107fa600480360360208110156107e457600080fd5b81019080803590602001909291905050506122fb565b60405180806020018373ffffffffffffffffffffffffffffffffffffffff1673ffffffffffffffffffffffffffffffffffffffff168152602001828103825284818151815260200191508051906020019080838360005b8381101561086c578082015181840152602081019050610851565b50505050905090810190601f1680156108995780820380516001836020036101000a031916815260200191505b50935050505060405180910390f35b610961600480360360208110156108be57600080fd5b81019080803590602001906401000000008111156108db57600080fd5b8201836020820111156108ed57600080fd5b8035906020019184600183028401116401000000008311171561090f57600080fd5b91908080601f016020809104026020016040519081016040528093929190818152602001838380828437600081840152601f19601f8201169050808301925050505050505091929192905050506123e4565b6040518082815260200191505060405180910390f35b34801561098357600080fd5b50610b006004803603608081101561099a57600080fd5b81019080803590602001906401000000008111156109b757600080fd5b8201836020820111156109c957600080fd5b803590602001918460018302840111640100000000831117156109eb57600080fd5b91908080601f016020809104026020016040519081016040528093929190818152602001838380828437600081840152601f19601f82011690508083019250505050505050919291929080359060200190640100000000811115610a4e57600080fd5b820183602082011115610a6057600080fd5b80359060200191846001830284011164010000000083111715610a8257600080fd5b91908080601f016020809104026020016040519081016040528093929190818152602001838380828437600081840152601f19601f820116905080830192505050505050509192919290803573ffffffffffffffffffffffffffffffffffffffff16906020019092919080351515906020019092919050505061258d565b6040518082815260200191505060405180910390f35b610bdb60048036036040811015610b2c57600080fd5b8101908080359060200190640100000000811115610b4957600080fd5b820183602082011115610b5b57600080fd5b80359060200191846001830284011164010000000083111715610b7d57600080fd5b91908080601f016020809104026020016040519081016040528093929190818152602001838380828437600081840152601f19601f8201169050808301925050505050505091929192908035151590602001909291905050506127c1565b6040518082815260200191505060405180910390f35b610cca60048036036040811015610c0757600080fd5b8101908080359060200190640100000000811115610c2457600080fd5b820183602082011115610c3657600080fd5b80359060200191846001830284011164010000000083111715610c5857600080fd5b91908080601f016020809104026020016040519081016040528093929190818152602001838380828437600081840152601f19601f820116905080830192505050505050509192919290803573ffffffffffffffffffffffffffffffffffffffff16906020019092919050505061292a565b005b348015610cd857600080fd5b50610d1b60048036036020811015610cef57600080fd5b81019080803573ffffffffffffffffffffffffffffffffffffffff169060200190929190505050612ac8565b6040518082815260200191505060405180910390f35b348015610d3d57600080fd5b50610df760048036036020811015610d5457600080fd5b8101908080359060200190640100000000811115610d7157600080fd5b820183602082011115610d8357600080fd5b80359060200191846001830284011164010000000083111715610da557600080fd5b91908080601f016020809104026020016040519081016040528093929190818152602001838380828437600081840152601f19601f820116905080830192505050505050509192919290505050612c9a565b6040518082815260200191505060405180910390f35b348015610e1957600080fd5b50610e5c60048036036020811015610e3057600080fd5b81019080803573ffffffffffffffffffffffffffffffffffffffff169060200190929190505050612e26565b6040518082815260200191505060405180910390f35b348015610e7e57600080fd5b50610eab60048036036020811015610e9557600080fd5b810190808035906020019092919050505061320b565b60405180806020018373ffffffffffffffffffffffffffffffffffffffff1673ffffffffffffffffffffffffffffffffffffffff168152602001828103825284818151815260200191508051906020019080838360005b83811015610f1d578082015181840152602081019050610f02565b50505050905090810190601f168015610f4a5780820380516001836020036101000a031916815260200191505b50935050505060405180910390f35b348015610f6557600080fd5b50610fa860048036036020811015610f7c57600080fd5b81019080803573ffffffffffffffffffffffffffffffffffffffff1690602001909291905050506132f4565b6040518080602001828103825283818151815260200191508051906020019080838360005b83811015610fe8578082015181840152602081019050610fcd565b50505050905090810190601f1680156110155780820380516001836020036101000a031916815260200191505b509250505060405180910390f35b6110fc6004803603604081101561103957600080fd5b810190808035906020019064010000000081111561105657600080fd5b82018360208201111561106857600080fd5b8035906020019184600183028401116401000000008311171561108a57600080fd5b91908080601f016020809104026020016040519081016040528093929190818152602001838380828437600081840152601f19601f820116905080830192505050505050509192919290803573ffffffffffffffffffffffffffffffffffffffff169060200190929190505050613486565b005b34801561110a57600080fd5b506111376004803603602081101561112157600080fd5b8101908080359060200190929190505050613624565b60405180806020018773ffffffffffffffffffffffffffffffffffffffff1673ffffffffffffffffffffffffffffffffffffffff1681526020018681526020018060200185151515158152602001848152602001838103835289818151815260200191508051906020019080838360005b838110156111c35780820151818401526020810190506111a8565b50505050905090810190601f1680156111f05780820380516001836020036101000a031916815260200191505b50838103825286818151815260200191508051906020019080838360005b8381101561122957808201518184015260208101905061120e565b50505050905090810190601f1680156112565780820380516001836020036101000a031916815260200191505b509850505050505050505060405180910390f35b34801561127657600080fd5b506113c76004803603604081101561128d57600080fd5b81019080803590602001906401000000008111156112aa57600080fd5b8201836020820111156112bc57600080fd5b803590602001918460018302840111640100000000831117156112de57600080fd5b91908080601f016020809104026020016040519081016040528093929190818152602001838380828437600081840152601f19601f8201169050808301925050505050505091929192908035906020019064010000000081111561134157600080fd5b82018360208201111561135357600080fd5b8035906020019184600183028401116401000000008311171561137557600080fd5b91908080601f016020809104026020016040519081016040528093929190818152602001838380828437600081840152601f19601f8201169050808301925050505050505091929192905050506137ca565b604051808215151515815260200191505060405180910390f35b3480156113ed57600080fd5b5061141a6004803603602081101561140457600080fd5b8101908080359060200190929190505050613944565b6040518080602001806020018781526020018673ffffffffffffffffffffffffffffffffffffffff1673ffffffffffffffffffffffffffffffffffffffff1681526020018060200185815260200184810384528a818151815260200191508051906020019080838360005b838110156114a0578082015181840152602081019050611485565b50505050905090810190601f1680156114cd5780820380516001836020036101000a031916815260200191505b50848103835289818151815260200191508051906020019080838360005b838110156115065780820151818401526020810190506114eb565b50505050905090810190601f1680156115335780820380516001836020036101000a031916815260200191505b50848103825286818151815260200191508051906020019080838360005b8381101561156c578082015181840152602081019050611551565b50505050905090810190601f1680156115995780820380516001836020036101000a031916815260200191505b50995050505050505050505060405180910390f35b6116fe600480360360408110156115c457600080fd5b81019080803590602001906401000000008111156115e157600080fd5b8201836020820111156115f357600080fd5b8035906020019184600183028401116401000000008311171561161557600080fd5b91908080601f016020809104026020016040519081016040528093929190818152602001838380828437600081840152601f19601f8201169050808301925050505050505091929192908035906020019064010000000081111561167857600080fd5b82018360208201111561168a57600080fd5b803590602001918460018302840111640100000000831117156116ac57600080fd5b91908080601f016020809104026020016040519081016040528093929190818152602001838380828437600081840152601f19601f820116905080830192505050505050509192919290505050613b75565b6040518082815260200191505060405180910390f35b6117cd6004803603602081101561172a57600080fd5b810190808035906020019064010000000081111561174757600080fd5b82018360208201111561175957600080fd5b8035906020019184600183028401116401000000008311171561177b57600080fd5b91908080601f016020809104026020016040519081016040528093929190818152602001838380828437600081840152601f19601f820116905080830192505050505050509192919290505050613d62565b6040518082815260200191505060405180910390f35b606060008090505b6001805490508110156118ee5761181f6001828154811061180857fe5b906000526020600020906006020160000184614099565b156118e3576001818154811061183157fe5b90600052602060002090600602016001018054600181600116156101000203166002900480601f0160208091040260200160405190810160405280929190818152602001828054600181600116156101000203166002900480156118d65780601f106118ab576101008083540402835291602001916118d6565b820191906000526020600020905b8154815290600101906020018083116118b957829003601f168201915b5050505050915050611928565b8060010190506117eb565b506040518060400160405280601f81526020017f437573746f6d6572206e6f7420666f756e6420696e206461746162617365210081525090505b919050565b600080600090505b600480549050811015611acb576119696004828154811061195257fe5b906000526020600020906002020160000184614099565b15611ac05760006001820190505b600480549050811015611a5a576004828154811061199157fe5b9060005260206000209060020201600460018403815481106119af57fe5b9060005260206000209060020201600082018160000190805460018160011615610100020316600290046119e49291906141d8565b506001820160009054906101000a900473ffffffffffffffffffffffffffffffffffffffff168160010160006101000a81548173ffffffffffffffffffffffffffffffffffffffff021916908373ffffffffffffffffffffffffffffffffffffffff160217905550905050806001019050611977565b506004805480611a6657fe5b600190038181906000526020600020906002020160008082016000611a8b919061425f565b6001820160006101000a81549073ffffffffffffffffffffffffffffffffffffffff0219169055505090556000915050611ad1565b806001019050611935565b50600190505b919050565b606060008090505b600280549050811015611c29578273ffffffffffffffffffffffffffffffffffffffff1660028281548110611b0f57fe5b906000526020600020906006020160010160009054906101000a900473ffffffffffffffffffffffffffffffffffffffff1673ffffffffffffffffffffffffffffffffffffffff161415611c1c5760028181548110611b6a57fe5b90600052602060002090600602016000018054600181600116156101000203166002900480601f016020809104026020016040519081016040528092919081815260200182805460018160011615610100020316600290048015611c0f5780601f10611be457610100808354040283529160200191611c0f565b820191906000526020600020905b815481529060010190602001808311611bf257829003601f168201915b5050505050915050611c63565b8080600101915050611ade565b506040518060400160405280600181526020017f300000000000000000000000000000000000000000000000000000000000000081525090505b919050565b6000806000905060008090505b600280549050811015611d06573373ffffffffffffffffffffffffffffffffffffffff1660028281548110611ca657fe5b906000526020600020906006020160010160009054906101000a900473ffffffffffffffffffffffffffffffffffffffff1673ffffffffffffffffffffffffffffffffffffffff161415611cf957600191505b8080600101915050611c75565b506001151581151514611d64576040517f08c379a00000000000000000000000000000000000000000000000000000000081526004018080602001828103825260218152602001806143cd6021913960400191505060405180910390fd5b60008090505b600180549050811015611dd757611d9e60018281548110611d8757fe5b906000526020600020906006020160000185614099565b15611dca5760018181548110611db057fe5b906000526020600020906006020160050154925050611ddd565b8080600101915050611d6a565b50600091505b50919050565b60008060008090505b600180549050811015611e7857611e2060018281548110611e0957fe5b906000526020600020906006020160000185614099565b15611e6b5760018181548110611e3257fe5b906000526020600020906006020160030160009054906101000a900473ffffffffffffffffffffffffffffffffffffffff169150611e78565b8080600101915050611dec565b5080915050919050565b6000806000905060008090505b600280549050811015611f20573373ffffffffffffffffffffffffffffffffffffffff1660028281548110611ec057fe5b906000526020600020906006020160010160009054906101000a900473ffffffffffffffffffffffffffffffffffffffff1673ffffffffffffffffffffffffffffffffffffffff161415611f1357600191505b8080600101915050611e8f565b506001151581151514611f7e576040517f08c379a00000000000000000000000000000000000000000000000000000000081526004018080602001828103825260218152602001806143cd6021913960400191505060405180910390fd5b60008090505b600280549050811015612037578373ffffffffffffffffffffffffffffffffffffffff1660028281548110611fb557fe5b906000526020600020906006020160010160009054906101000a900473ffffffffffffffffffffffffffffffffffffffff1673ffffffffffffffffffffffffffffffffffffffff16141561202a576002818154811061201057fe5b90600052602060002090600602016005015492505061203d565b8080600101915050611f84565b50600091505b50919050565b6000806000905060008090505b6002805490508110156120e1573373ffffffffffffffffffffffffffffffffffffffff166002828154811061208157fe5b906000526020600020906006020160010160009054906101000a900473ffffffffffffffffffffffffffffffffffffffff1673ffffffffffffffffffffffffffffffffffffffff1614156120d457600191505b8080600101915050612050565b50600115158115151461213f576040517f08c379a00000000000000000000000000000000000000000000000000000000081526004018080602001828103825260218152602001806143cd6021913960400191505060405180910390fd5b60008090505b600180549050811015612195576121796001828154811061216257fe5b906000526020600020906006020160000186614099565b156121885760029250506122f4565b8080600101915050612145565b5060016040518060c00160405280868152602001858152602001600081526020013373ffffffffffffffffffffffffffffffffffffffff1681526020016040518060400160405280600481526020017f6e756c6c0000000000000000000000000000000000000000000000000000000081525081526020016000815250908060018154018082558091505060019003906000526020600020906006020160009091909190915060008201518160000190805190602001906122579291906142a7565b5060208201518160010190805190602001906122749291906142a7565b506040820151816002015560608201518160030160006101000a81548173ffffffffffffffffffffffffffffffffffffffff021916908373ffffffffffffffffffffffffffffffffffffffff16021790555060808201518160040190805190602001906122e29291906142a7565b5060a082015181600501555050600091505b5092915050565b6004818154811061230857fe5b9060005260206000209060020201600091509050806000018054600181600116156101000203166002900480601f0160208091040260200160405190810160405280929190818152602001828054600181600116156101000203166002900480156123b45780601f10612389576101008083540402835291602001916123b4565b820191906000526020600020905b81548152906001019060200180831161239757829003601f168201915b5050505050908060010160009054906101000a900473ffffffffffffffffffffffffffffffffffffffff16905082565b600080600090505b600380549050811015612582576124206003828154811061240957fe5b906000526020600020906002020160000184614099565b156125775760006001820190505b600380549050811015612511576003828154811061244857fe5b90600052602060002090600202016003600184038154811061246657fe5b90600052602060002090600202016000820181600001908054600181600116156101000203166002900461249b9291906141d8565b506001820160009054906101000a900473ffffffffffffffffffffffffffffffffffffffff168160010160006101000a81548173ffffffffffffffffffffffffffffffffffffffff021916908373ffffffffffffffffffffffffffffffffffffffff16021790555090505080600101905061242e565b50600380548061251d57fe5b600190038181906000526020600020906002020160008082016000612542919061425f565b6001820160006101000a81549073ffffffffffffffffffffffffffffffffffffffff0219169055505090556000915050612588565b8060010190506123ec565b50600190505b919050565b60008060009054906101000a900473ffffffffffffffffffffffffffffffffffffffff1673ffffffffffffffffffffffffffffffffffffffff163373ffffffffffffffffffffffffffffffffffffffff1614612634576040517f08c379a00000000000000000000000000000000000000000000000000000000081526004018080602001828103825260418152602001806143ee6041913960600191505060405180910390fd5b60008090505b60028054905081101561268a5761266e6002828154811061265757fe5b906000526020600020906006020160000187614099565b1561267d5760009150506127b9565b808060010191505061263a565b5060026040518060c001604052808781526020018573ffffffffffffffffffffffffffffffffffffffff1681526020016000815260200186815260200184151581526020016000815250908060018154018082558091505060019003906000526020600020906006020160009091909190915060008201518160000190805190602001906127199291906142a7565b5060208201518160010160006101000a81548173ffffffffffffffffffffffffffffffffffffffff021916908373ffffffffffffffffffffffffffffffffffffffff1602179055506040820151816002015560608201518160030190805190602001906127879291906142a7565b5060808201518160040160006101000a81548160ff02191690831515021790555060a082015181600501555050600190505b949350505050565b600080600090505b600180549050811015612922576127fd600182815481106127e657fe5b906000526020600020906006020160000185614099565b156129175782156128ab576001818154811061281557fe5b90600052602060002090600602016002016000815480929190600101919050555060056001828154811061284557fe5b90600052602060002090600602016002015411156128a6576128a5846001838154811061286e57fe5b906000526020600020906006020160030160009054906101000a900473ffffffffffffffffffffffffffffffffffffffff16613486565b5b61290d565b600181815481106128b857fe5b906000526020600020906006020160020160008154809291906001900391905055506005600182815481106128e957fe5b906000526020600020906006020160020154101561290c5761290a8461192d565b505b5b6000915050612924565b8060010190506127c9565b505b92915050565b60008090505b6003805490508110156129ef576129646003828154811061294d57fe5b906000526020600020906002020160000184614099565b80156129d957508173ffffffffffffffffffffffffffffffffffffffff166003828154811061298f57fe5b906000526020600020906002020160010160009054906101000a900473ffffffffffffffffffffffffffffffffffffffff1673ffffffffffffffffffffffffffffffffffffffff16145b156129e45750612ac4565b806001019050612930565b5060036001816001815401808255809150500390600052602060002090505060405180604001604052808381526020018273ffffffffffffffffffffffffffffffffffffffff16815250600360016003805490500381548110612a4e57fe5b90600052602060002090600202016000820151816000019080519060200190612a789291906142a7565b5060208201518160010160006101000a81548173ffffffffffffffffffffffffffffffffffffffff021916908373ffffffffffffffffffffffffffffffffffffffff1602179055509050505b5050565b6000806000905060008090505b600280549050811015612b66573373ffffffffffffffffffffffffffffffffffffffff1660028281548110612b0657fe5b906000526020600020906006020160010160009054906101000a900473ffffffffffffffffffffffffffffffffffffffff1673ffffffffffffffffffffffffffffffffffffffff161415612b5957600191505b8080600101915050612ad5565b506001151581151514612bc4576040517f08c379a00000000000000000000000000000000000000000000000000000000081526004018080602001828103825260218152602001806143cd6021913960400191505060405180910390fd5b60008090505b600280549050811015612c8e578373ffffffffffffffffffffffffffffffffffffffff1660028281548110612bfb57fe5b906000526020600020906006020160010160009054906101000a900473ffffffffffffffffffffffffffffffffffffffff1673ffffffffffffffffffffffffffffffffffffffff161415612c815760028181548110612c5657fe5b9060005260206000209060060201600501600081548092919060010191905055506000925050612c94565b8080600101915050612bca565b50600191505b50919050565b6000806000905060008090505b600280549050811015612d38573373ffffffffffffffffffffffffffffffffffffffff1660028281548110612cd857fe5b906000526020600020906006020160010160009054906101000a900473ffffffffffffffffffffffffffffffffffffffff1673ffffffffffffffffffffffffffffffffffffffff161415612d2b57600191505b8080600101915050612ca7565b506001151581151514612d96576040517f08c379a00000000000000000000000000000000000000000000000000000000081526004018080602001828103825260218152602001806143cd6021913960400191505060405180910390fd5b60008090505b600180549050811015612e1a57612dd060018281548110612db957fe5b906000526020600020906006020160000185614099565b15612e0d5760018181548110612de257fe5b9060005260206000209060060201600501600081548092919060010191905055506000925050612e20565b8080600101915050612d9c565b50600191505b50919050565b60008060009054906101000a900473ffffffffffffffffffffffffffffffffffffffff1673ffffffffffffffffffffffffffffffffffffffff163373ffffffffffffffffffffffffffffffffffffffff1614612ecd576040517f08c379a00000000000000000000000000000000000000000000000000000000081526004018080602001828103825260418152602001806143ee6041913960600191505060405180910390fd5b6000809050600080905060008090505b600280549050811015612f75578473ffffffffffffffffffffffffffffffffffffffff1660028281548110612f0e57fe5b906000526020600020906006020160010160009054906101000a900473ffffffffffffffffffffffffffffffffffffffff1673ffffffffffffffffffffffffffffffffffffffff161415612f685760019250809150612f75565b8080600101915050612edd565b5081156131ff5760008190505b6001600280549050038110156130d35760026001820181548110612fa257fe5b906000526020600020906006020160028281548110612fbd57fe5b906000526020600020906006020160008201816000019080546001816001161561010002031660029004612ff29291906141d8565b506001820160009054906101000a900473ffffffffffffffffffffffffffffffffffffffff168160010160006101000a81548173ffffffffffffffffffffffffffffffffffffffff021916908373ffffffffffffffffffffffffffffffffffffffff160217905550600282015481600201556003820181600301908054600181600116156101000203166002900461308b9291906141d8565b506004820160009054906101000a900460ff168160040160006101000a81548160ff021916908315150217905550600582015481600501559050508080600101915050612f82565b506002600160028054905003815481106130e957fe5b906000526020600020906006020160008082016000613108919061425f565b6001820160006101000a81549073ffffffffffffffffffffffffffffffffffffffff02191690556002820160009055600382016000613147919061425f565b6004820160006101000a81549060ff021916905560058201600090555050600280548061317057fe5b600190038181906000526020600020906006020160008082016000613195919061425f565b6001820160006101000a81549073ffffffffffffffffffffffffffffffffffffffff021916905560028201600090556003820160006131d4919061425f565b6004820160006101000a81549060ff0219169055600582016000905550509055600192505050613206565b6000925050505b919050565b6003818154811061321857fe5b9060005260206000209060020201600091509050806000018054600181600116156101000203166002900480601f0160208091040260200160405190810160405280929190818152602001828054600181600116156101000203166002900480156132c45780601f10613299576101008083540402835291602001916132c4565b820191906000526020600020905b8154815290600101906020018083116132a757829003601f168201915b5050505050908060010160009054906101000a900473ffffffffffffffffffffffffffffffffffffffff16905082565b606060008090505b600380549050811015613447578273ffffffffffffffffffffffffffffffffffffffff166003828154811061332d57fe5b906000526020600020906002020160010160009054906101000a900473ffffffffffffffffffffffffffffffffffffffff1673ffffffffffffffffffffffffffffffffffffffff16141561343a576003818154811061338857fe5b90600052602060002090600202016000018054600181600116156101000203166002900480601f01602080910402602001604051908101604052809291908181526020018280546001816001161561010002031660029004801561342d5780601f106134025761010080835404028352916020019161342d565b820191906000526020600020905b81548152906001019060200180831161341057829003601f168201915b5050505050915050613481565b80806001019150506132fc565b506040518060400160405280600181526020017f300000000000000000000000000000000000000000000000000000000000000081525090505b919050565b60008090505b60048054905081101561354b576134c0600482815481106134a957fe5b906000526020600020906002020160000184614099565b801561353557508173ffffffffffffffffffffffffffffffffffffffff16600482815481106134eb57fe5b906000526020600020906002020160010160009054906101000a900473ffffffffffffffffffffffffffffffffffffffff1673ffffffffffffffffffffffffffffffffffffffff16145b156135405750613620565b80600101905061348c565b5060046001816001815401808255809150500390600052602060002090505060405180604001604052808381526020018273ffffffffffffffffffffffffffffffffffffffff168152506004600160048054905003815481106135aa57fe5b906000526020600020906002020160008201518160000190805190602001906135d49291906142a7565b5060208201518160010160006101000a81548173ffffffffffffffffffffffffffffffffffffffff021916908373ffffffffffffffffffffffffffffffffffffffff1602179055509050505b5050565b6002818154811061363157fe5b9060005260206000209060060201600091509050806000018054600181600116156101000203166002900480601f0160208091040260200160405190810160405280929190818152602001828054600181600116156101000203166002900480156136dd5780601f106136b2576101008083540402835291602001916136dd565b820191906000526020600020905b8154815290600101906020018083116136c057829003601f168201915b5050505050908060010160009054906101000a900473ffffffffffffffffffffffffffffffffffffffff1690806002015490806003018054600181600116156101000203166002900480601f0160208091040260200160405190810160405280929190818152602001828054600181600116156101000203166002900480156137a75780601f1061377c576101008083540402835291602001916137a7565b820191906000526020600020905b81548152906001019060200180831161378a57829003601f168201915b5050505050908060040160009054906101000a900460ff16908060050154905086565b6000806000905060008090505b6001805490508110156139275761380b600182815481106137f457fe5b906000526020600020906006020160000186614099565b1561391a5761386c6001828154811061382057fe5b90600052602060002090600602016004016040518060400160405280600481526020017f6e756c6c00000000000000000000000000000000000000000000000000000000815250614099565b6138de576040517f08c379a000000000000000000000000000000000000000000000000000000000815260040180806020018281038252601b8152602001807f4572726f723a2050617373776f726420616c726561647920736574000000000081525060200191505060405180910390fd5b83600182815481106138ec57fe5b90600052602060002090600602016004019080519060200190613910929190614327565b5060019150613927565b80806001019150506137d7565b50801561393857600191505061393e565b60009150505b92915050565b6001818154811061395157fe5b9060005260206000209060060201600091509050806000018054600181600116156101000203166002900480601f0160208091040260200160405190810160405280929190818152602001828054600181600116156101000203166002900480156139fd5780601f106139d2576101008083540402835291602001916139fd565b820191906000526020600020905b8154815290600101906020018083116139e057829003601f168201915b505050505090806001018054600181600116156101000203166002900480601f016020809104026020016040519081016040528092919081815260200182805460018160011615610100020316600290048015613a9b5780601f10613a7057610100808354040283529160200191613a9b565b820191906000526020600020905b815481529060010190602001808311613a7e57829003601f168201915b5050505050908060020154908060030160009054906101000a900473ffffffffffffffffffffffffffffffffffffffff1690806004018054600181600116156101000203166002900480601f016020809104026020016040519081016040528092919081815260200182805460018160011615610100020316600290048015613b655780601f10613b3a57610100808354040283529160200191613b65565b820191906000526020600020905b815481529060010190602001808311613b4857829003601f168201915b5050505050908060050154905086565b6000806000905060008090505b600280549050811015613c13573373ffffffffffffffffffffffffffffffffffffffff1660028281548110613bb357fe5b906000526020600020906006020160010160009054906101000a900473ffffffffffffffffffffffffffffffffffffffff1673ffffffffffffffffffffffffffffffffffffffff161415613c0657600191505b8080600101915050613b82565b506001151581151514613c71576040517f08c379a00000000000000000000000000000000000000000000000000000000081526004018080602001828103825260218152602001806143cd6021913960400191505060405180910390fd5b60008090505b600180549050811015613d5557613cab60018281548110613c9457fe5b906000526020600020906006020160000186614099565b15613d4a578360018281548110613cbe57fe5b90600052602060002090600602016001019080519060200190613ce2929190614327565b503360018281548110613cf157fe5b906000526020600020906006020160030160006101000a81548173ffffffffffffffffffffffffffffffffffffffff021916908373ffffffffffffffffffffffffffffffffffffffff1602179055506000925050613d5b565b806001019050613c77565b50600191505b5092915050565b6000806000905060008090505b600280549050811015613e00573373ffffffffffffffffffffffffffffffffffffffff1660028281548110613da057fe5b906000526020600020906006020160010160009054906101000a900473ffffffffffffffffffffffffffffffffffffffff1673ffffffffffffffffffffffffffffffffffffffff161415613df357600191505b8080600101915050613d6f565b506001151581151514613e5e576040517f08c379a00000000000000000000000000000000000000000000000000000000081526004018080602001828103825260218152602001806143cd6021913960400191505060405180910390fd5b60008090505b60018054905081101561408d57613e9860018281548110613e8157fe5b906000526020600020906006020160000185614099565b156140825760006001820190505b600180549050811015613fec5760018281548110613ec057fe5b9060005260206000209060060201600180840381548110613edd57fe5b906000526020600020906006020160008201816000019080546001816001161561010002031660029004613f129291906141d8565b5060018201816001019080546001816001161561010002031660029004613f3a9291906141d8565b50600282015481600201556003820160009054906101000a900473ffffffffffffffffffffffffffffffffffffffff168160030160006101000a81548173ffffffffffffffffffffffffffffffffffffffff021916908373ffffffffffffffffffffffffffffffffffffffff16021790555060048201816004019080546001816001161561010002031660029004613fd39291906141d8565b5060058201548160050155905050806001019050613ea6565b506001805480613ff857fe5b60019003818190600052602060002090600602016000808201600061401d919061425f565b60018201600061402d919061425f565b60028201600090556003820160006101000a81549073ffffffffffffffffffffffffffffffffffffffff021916905560048201600061406c919061425f565b6005820160009055505090556000925050614093565b806001019050613e64565b50600191505b50919050565b6000808390506060839050805182805460018160011615610100020316600290049050146140cc576000925050506141d2565b60008090505b828054600181600116156101000203166002900490508110156141ca578181815181106140fb57fe5b602001015160f81c60f81b7effffffffffffffffffffffffffffffffffffffffffffffffffffffffffffff1916838281546001816001161561010002031660029004811061414557fe5b8154600116156141645790600052602060002090602091828204019190065b9054901a7f0100000000000000000000000000000000000000000000000000000000000000027effffffffffffffffffffffffffffffffffffffffffffffffffffffffffffff1916146141bd57600093505050506141d2565b80806001019150506140d2565b506001925050505b92915050565b828054600181600116156101000203166002900490600052602060002090601f016020900481019282601f10614211578054855561424e565b8280016001018555821561424e57600052602060002091601f016020900482015b8281111561424d578254825591600101919060010190614232565b5b50905061425b91906143a7565b5090565b50805460018160011615610100020316600290046000825580601f1061428557506142a4565b601f0160209004906000526020600020908101906142a391906143a7565b5b50565b828054600181600116156101000203166002900490600052602060002090601f016020900481019282601f106142e857805160ff1916838001178555614316565b82800160010185558215614316579182015b828111156143155782518255916020019190600101906142fa565b5b50905061432391906143a7565b5090565b828054600181600116156101000203166002900490600052602060002090601f016020900481019282601f1061436857805160ff1916838001178555614396565b82800160010185558215614396579182015b8281111561439557825182559160200191906001019061437a565b5b5090506143a391906143a7565b5090565b6143c991905b808211156143c55760008160009055506001016143ad565b5090565b9056fe476976656e2042616e6b206973206e6f742070726573656e7420696e206c6973744572726f723a205065726d697373696f6e2064656e6965642e204f6e6c792041646d696e2063616e20706572666f726d207468657365206f7065726174696f6e73a2646970667358221220d9621b06f0844e0b6db4927d4f50e0fc2fa5376ba427dd59b3156bb3c6239e2b64736f6c63430006040033",
  "source": "pragma solidity ^0.6.4;\n\n\ncontract KYCContract{\n    //owner (admin) for kyc contract\n\n    address adminAddress;\n    constructor() public{\n        adminAddress = msg.sender;\n    }\n\n /* Struct customer\n    uname - username of the customer unique\n    dataHash - customer data hashed with sha256\n    rating - rating given to customer\n    upvotes - number of upvotes recieved from banks\n    bank - address of bank that validated the customer account */\n    struct Customer {\n        string uname;\n        string dataHash;\n        uint upvotes;\n        address bank;\n        string password;\n        uint rating;\n    }\n\n    // Struct Organisation\n    // name - name of the bank/organisation\n    // ethAddress - ethereum address of the bank/organisation\n    // rating - rating based on number of valid/invalid verified accounts\n    // KYC_count - number of KYCs verified by the bank/organisation\n    struct Organisation {\n        string name;\n        address ethAddress;\n        uint KYC_count;\n        string regNumber;\n        bool isAllowedKyc;\n        uint rating;\n    }\n\n    // Struct Request\n    // uname - username of the customer\n    // bankAddress - ethereum address of the bank/organisation\n    struct Request {\n        string uname;\n        address bankAddress;\n    }\n\n     // to store list of all customers\n    Customer[] public allCustomers;\n    // to store list of all Banks/Organisations\n    Organisation[] public allBanks;\n    // to store list of all requests\n    Request[] public allRequests;\n    // to store list of all valid KYCs\n    Request[] public validKYCs;\n\n/** addBank to allBanks list\n    @param _bankName - name of bank\n    @param _regNumber - bank's reg number\n    @param _bankAddr - bank's address\n    @param _isAllowedKyc - flag if bank is allowed to do kyc\n    @return 0- for error , 1- for success */\n    function addBank(string memory _bankName,string memory _regNumber,address _bankAddr,bool _isAllowedKyc) public isAdmin  returns(uint){\n        // check if bank is already created\n        for(uint i = 0;i < allBanks.length;i++){\n            if (stringsEqual(allBanks[i].name,_bankName)){\n                return 0;\n            }\n        }\n        allBanks.push(Organisation({\n            name:_bankName,\n            ethAddress:_bankAddr,\n            KYC_count:0,\n            regNumber:_regNumber,\n            isAllowedKyc:_isAllowedKyc,\n            rating:0\n        }));\n        return 1;\n    }\n\n    /**\n    remove bank\n    @param _bankAddr - bank address to remove\n    @return 0 for error, 1 for success\n     */\n     function removeBank(address _bankAddr) public isAdmin returns (uint) {\n         bool isPresent = false;\n         uint index = 0;\n         for(uint i = 0;i < allBanks.length;i++){\n            if (allBanks[i].ethAddress == _bankAddr){\n                isPresent = true;\n                index = i;\n                break;\n            }\n         }\n         if (isPresent){\n            for(uint i = index;i<allBanks.length-1;i++){\n                    allBanks[i] = allBanks[i+1];\n                }\n            delete allBanks[allBanks.length-1];\n            allBanks.pop();\n            return 1;\n         }\n         return 0;\n     }\n\n    // function to compare two string value\n    // This is an internal fucntion to compare string values\n    // @Params - String a and String b are passed as Parameters\n    // @return - This function returns true if strings are matched and false if the strings are not matching\n    function stringsEqual(string storage _a, string memory _b) internal view returns (bool) {\n        bytes storage a = bytes(_a);bytes memory b = bytes(_b);\n        if (a.length != b.length)\n        return false;\n        // @todo unroll this loop\n        for (uint i = 0; i < a.length; i ++)\n        {\n            if (a[i] != b[i])\n            return false;\n        }\n        return true;\n    }\n\n    //modifier for isAdmin\n    //to be applied to function which admin can only perform.\n    modifier isAdmin() {\n        require(msg.sender == adminAddress,\"Error: Permission denied. Only Admin can perform these operations\");\n        _;\n    }\n\n/* to check current address of the bank is valid bank or not */\n    modifier isValidBank() {\n        bool result = false;\n        for(uint i = 0;i<allBanks.length;i++){\n            if(allBanks[i].ethAddress == msg.sender){\n                result = true;\n            }\n        }\n        require(result == true,\"Given Bank is not present in list\");\n        _;\n    }\n\n\n    /*** function to add request for KYC\n    @param Uname Username for the customer and bankAddress\n    @param bankAddress bankAddress\n    Function is made payable as banks need to provide some currency to start of the KYC process */\n    function addRequest(string memory Uname, address bankAddress) public payable {\n        // loop to check is request is already added\n        for(uint i = 0; i < allRequests.length; ++ i) {\n            if(stringsEqual(allRequests[i].uname, Uname) && allRequests[i].bankAddress == bankAddress) {\n                return;\n            }\n        }\n        allRequests.push();\n        allRequests[allRequests.length - 1] = Request(Uname, bankAddress);\n    }\n\n    /* function to add a customer profile to the database\n    @param Uname Username and the hash of data for the customer are passed as parameters\n    @param DataHash string format for hash generated\n    @return 0 if successful\n    @return 1 if size limit of the database is reached\n    @return 2 if customer already in network\n    */\n    function addCustomer(string memory Uname, string memory DataHash) public isValidBank payable returns(int) {\n        // throw error if username already in use\n        for(uint i = 0;i < allCustomers.length; i++) {\n            if(stringsEqual(allCustomers[i].uname, Uname))\n            return 2;\n        }\n        allCustomers.push(Customer(Uname, DataHash, 0, msg.sender,\"null\",0));\n        return 0;\n    }\n\n    /** function to remove request for KYC\n    @param Uname Username for the customer\n    @return 0 This function returns 0 if removal is successful else this return 1 if the Username\n    for the customer is not found */\n    function removeRequest(string memory Uname) public payable returns(int) {\n        for(uint i = 0; i < allRequests.length; ++ i) {\n            if(stringsEqual(allRequests[i].uname, Uname)) {\n            for(uint j = i+1;j < allRequests.length; ++ j) {\n                allRequests[i-1] = allRequests[i];\n            }\n            allRequests.pop();\n            return 0;\n            }\n        }\n        return 1;\n    }\n\n    /*\n    function to remove fraudulent customer profile from the database\n    @param Uname - customer's username is passed as parameter\n    @return 0 if successful\n    @return 1 if customer profile not in database */\n    function removeCustomer(string memory Uname) public isValidBank payable returns(int) {\n        for(uint i = 0; i < allCustomers.length; ++ i) {\n            if(stringsEqual(allCustomers[i].uname, Uname)) {\n                for(uint j = i+1;j < allCustomers.length; ++ j) {\n                    allCustomers[i-1] = allCustomers[i];\n                }\n                allCustomers.pop();\n                return 0;\n            }\n        }\n        // throw error if uname not found\n        return 1;\n    }\n // function to modify a customer profile in database\n    // @params - Customer username and datahash are passed as Parameters\n    // returns 0 if successful\n    // returns 1 if customer profile not in database\n    function modifyCustomer(string memory Uname, string memory DataHash) public isValidBank payable returns(uint) {\n        for(uint i = 0; i < allCustomers.length; ++ i) {\n            if(stringsEqual(allCustomers[i].uname, Uname)) {\n                allCustomers[i].dataHash = DataHash;\n                allCustomers[i].bank = msg.sender;\n                return 0;\n            }\n        }\n        // throw error if uname not found\n        return 1;\n    }\n    function viewCustomer(string memory Uname) public payable returns(string memory) {\n        for(uint i = 0; i < allCustomers.length; ++ i) {\n            if(stringsEqual(allCustomers[i].uname, Uname)) {\n                return allCustomers[i].dataHash;\n            }\n        }\n        return \"Customer not found in database!\";\n    }\n\n    /*function to add request for KYC\n    @param Uname Username for the customer and bankAddress\n    @param bankAddress bankaddressva\n    Function is made payable as banks need to provide some currency to start of the KYC process */\n    function addKYC(string memory Uname, address bankAddress) public payable {\n        for(uint i = 0; i < validKYCs.length; ++ i) {\n            if(stringsEqual(validKYCs[i].uname, Uname) && validKYCs[i].bankAddress == bankAddress) {\n                return;\n            }\n        }\n        validKYCs.push();\n        validKYCs[validKYCs.length - 1] = Request(Uname, bankAddress);\n    }\n    /** function to remove from valid KYC\n    @param Uname Username for the customer\n    @return - This function returns 0 if removal is successful else this return 1 if the Username for the customer is not found */\n    function removeKYC(string memory Uname) public payable returns(int) {\n        for(uint i = 0; i < validKYCs.length; ++ i) {\n            if(stringsEqual(validKYCs[i].uname, Uname)) {\n               for(uint j = i+1;j < validKYCs.length; ++ j) {\n                    validKYCs[i-1] = validKYCs[i];\n                }\n                validKYCs.pop();\n                return 0;\n           }\n       }\n       //  throw error if Uname not found\n        return 1;\n    }\n\n    function upvote(string memory Uname, bool ifIncrease) public payable returns(uint){\n        for(uint i = 0; i < allCustomers.length; ++ i) {\n            if(stringsEqual(allCustomers[i].uname, Uname)) {\n                if(ifIncrease) {\n                    allCustomers[i].upvotes ++;\n                    if(allCustomers[i].upvotes > 5) {\n                        addKYC(Uname, allCustomers[i].bank);\n                    }\n                }\n                else {\n                    allCustomers[i].upvotes --;\n                    if(allCustomers[i].upvotes < 5) {\n                        removeKYC(Uname);\n                    }\n                }\n                return 0;\n            }\n        }\n    }\n\n    /*\n     get acessHistory of an customer\n     @param Customer  customer name\n     @return ethAddress of bank */\n     function acessHistory(string memory Uname) public view returns (address){\n        address result;\n          for(uint i = 0;i<allCustomers.length;i++){\n             if (stringsEqual(allCustomers[i].uname, Uname)){\n                 result = allCustomers[i].bank;\n                 break;\n             }\n         }\n         return result;\n     }\n\n\n    function addRatingToCustomer(string memory _uname) public isValidBank returns (uint){\n        for (uint i = 0;i<allCustomers.length;i++){\n            if (stringsEqual(allCustomers[i].uname,_uname)){\n                allCustomers[i].rating++;\n                return 0;\n            }\n        }\n        return 1;\n    }\n    /*\n    function to add rating to customer\n    @param _uname banks eth address\n    @return 0 if added rating successfully\n    @return 1 if additioin failed */\n\n\n    function getCustomersRating(string memory _uname) public view isValidBank returns (uint){\n        for (uint i = 0;i<allCustomers.length;i++){\n            if (stringsEqual(allCustomers[i].uname,_uname)){\n                return allCustomers[i].rating;\n            }\n        }\n        return 0;\n    }\n    /*\n    function to add rating to bank\n    @param _bankAddr banks eth address\n    @return 0 if added rating successfully\n    @return 1 if additioin failed */\n    function addRatingToBank(address _bankAddr) public isValidBank returns (uint){\n        for(uint i = 0;i<allBanks.length;i++){\n            if (allBanks[i].ethAddress == _bankAddr){\n                allBanks[i].rating++;\n                return 0;\n            }\n        }\n        return 1;\n    }\n\n    //function getBankRequest(address _adminAddress) public view returns (unit){\n       /* function getBankRequest(address _bankAddr) public payable returns(string memory) {\n        for(uint i = 0; i < allRequests.length; ++ i) {\n            if(stringsEqual(allRequests[i].address, _bankAddr)) {\n                return allRequests[i].dataHash;\n            }\n        }\n        return \"Request not found in database!\";\n    }*/\n    /*\n    function to get rating to bank\n    @param _bankAddr banks eth address\n    @return bank's rating\n    @return -1 if no bank found */\n    function getBanksRating(address _bankAddr) public view isValidBank returns (uint){\n        for(uint i = 0;i<allBanks.length;i++){\n            if (allBanks[i].ethAddress == _bankAddr){\n                return allBanks[i].rating;\n            }\n        }\n        return 0;\n    }\n/*\n    function to set password for customer data\n    @param _uname customer name\n    @param _password customer password\n    @return true if password set successful\n    @return false if password set unsuccessful\n    @return error if password already set*/\n    function setCustomerPassword(string memory _uname,string memory _password) public returns (bool){\n        bool result = false;\n        for(uint i = 0;i<allCustomers.length;i++){\n            if (stringsEqual(allCustomers[i].uname,_uname)){\n                require(stringsEqual(allCustomers[i].password,\"null\"),\"Error: Password already set\");\n                allCustomers[i].password = _password;\n                result = true;\n                break;\n            }\n        }\n        if(result){\n            return true;\n        }\n        return false;\n    }\n\n    /**\n     fetch bank's name using bank's ethaddress\n     @param _bankAddr banks eth address\n     @return bankName  banks name\n     */\n     function getBankDetails(address _bankAddr) public view returns(string memory) {\n         for(uint i = 0;i<allBanks.length;i++){\n             if (allBanks[i].ethAddress == _bankAddr){\n                 return allBanks[i].name;\n             }\n         }\n         return \"0\";\n     }\n\n\n   function getBankRequest(address _bankAddr) public view returns(string memory) {\n         for(uint i = 0;i<allRequests.length;i++){\n             if (allRequests[i].bankAddress == _bankAddr){\n                 return allRequests[i].uname;\n             }\n         }\n         return \"0\";\n     }\n\n\n\n}\n",
  "sourcePath": "/Users/manikandan/Desktop/kyctruffle/contracts/KYC.sol",
  "compiler": {
    "name": "solc",
    "version": "0.6.4+commit.1dca32f3.Emscripten.clang"
  },
  "schemaVersion": "3.0.23",
  "updatedAt": "2020-04-05T12:20:43.628Z",
  "networkType": "ethereum",
  "devdoc": {
    "methods": {
      "addBank(string,string,address,bool)": {
        "params": {
          "_bankAddr": "- bank's address",
          "_bankName": "- name of bank",
          "_isAllowedKyc": "- flag if bank is allowed to do kyc",
          "_regNumber": "- bank's reg number"
        },
        "returns": {
          "_0": "0- for error , 1- for success "
        }
      },
      "addRequest(string,address)": {
        "params": {
          "Uname": "Username for the customer and bankAddress",
          "bankAddress": "bankAddress Function is made payable as banks need to provide some currency to start of the KYC process "
        }
      },
      "getBankDetails(address)": {
        "params": {
          "_bankAddr": "banks eth address"
        },
        "returns": {
          "_0": "bankName  banks name"
        }
      },
      "removeBank(address)": {
        "params": {
          "_bankAddr": "- bank address to remove"
        },
        "returns": {
          "_0": "0 for error, 1 for success"
        }
      },
      "removeKYC(string)": {
        "params": {
          "Uname": "Username for the customer"
        },
        "returns": {
          "_0": "- This function returns 0 if removal is successful else this return 1 if the Username for the customer is not found "
        }
      },
      "removeRequest(string)": {
        "params": {
          "Uname": "Username for the customer"
        },
        "returns": {
          "_0": "0 This function returns 0 if removal is successful else this return 1 if the Username for the customer is not found "
        }
      }
    }
  },
  "userdoc": {
    "methods": {
      "addBank(string,string,address,bool)": {
        "notice": "addBank to allBanks list"
      },
      "addRequest(string,address)": {
        "notice": "* function to add request for KYC"
      },
      "getBankDetails(address)": {
        "notice": "fetch bank's name using bank's ethaddress"
      },
      "removeBank(address)": {
        "notice": "remove bank"
      },
      "removeKYC(string)": {
        "notice": "function to remove from valid KYC"
      },
      "removeRequest(string)": {
        "notice": "function to remove request for KYC"
      }
    }
  }
}